:0200000470107A
:1004000000002034E1411070054110700741107068
:10041000094110700B4110700D4110700F411070A8
:1004200000000000000000000000000011411070FA
:10043000134110700000000045081070E9071070AB
:100440003D421070000000003D4210703D421070AF
:100450003D4210703D4210703D4210703D421070A0
:100460003D421070000000003D4210703D4210708F
:100470003D4210703D4210703D421070000000007F
:100480003D421070000000003D4210703D4210706F
:100490003D4210703D4210703D4210703D42107060
:1004A0003D4210703D4210703D4210703D42107050
:1004B0003D4210703D4210703D4210703D42107040
:1004C0003D4210703D4210703D4210703D42107030
:1004D00000000000000000003D4210703D4210701E
:1004E0003D4210700000000000000000000000000D
:1004F00000000000000000003D4210702341107019
:100500001541107000000000000000000000000015
:100510003D4210702DE910703D4210703D42107048
:100520003D4210703D4210703D4210703D421070CF
:100530003D4210703D4210703D4210703D421070BF
:100540003D4210703D4210703D4210703D421070AF
:100550003D4210703D4210703D4210703D4210709F
:10074000000000003D4210703D42107000000000AB
:1007500010B5054C237833B9044B13B10448AFF3FB
:1007600000800123237010BD00040034000000004D
:10077000ECA5117008B5034B1BB103490348AFF357
:10078000008008BD0000000004040034ECA51170D6
:1007900072B64FF0E0201B49C0F8081D1A480168E6
:1007A00041F00101016019481649096801604FF0E4
:1007B000E020174941614FF0070101614FF000014E
:1007C000C0F8181D4FF07F41C0F81C1D1149C0F83A
:1007D000201D7047FFF7FEBF01B512F02BFC12F091
:1007E00087FCBDE80140704701B512F023FC00F022
:1007F000A3F812F07DFCBDE801407047FFF7FEBF93
:10080000FFF7FEBF00041070001000E078610134B3
:10081000FF340C000000FF404FF00000324A10602F
:10082000EFF3148020F0040080F3148862B64FF0D8
:1008300080504FF0E021C1F8040DBFF34F8FBFF39C
:100840006F8FFEE772B601B512F0B0FBBDE8014054
:1008500062B62648264A4FF00003016891B1036052
:10086000EFF3098C2CE9F00F1EF0100F01D12CEDE5
:10087000108A204C4CF804EDC1F808C025680DB171
:100880008D61236072B61168F1B1016062B64F6884
:10089000184C8D6907F101074F60256003B412F011
:1008A0005BFB03BCD1F80CC08CF30B88D1F808C0FB
:1008B0005CF804EB1EF0100F01D1BCEC108ABCE810
:1008C000F00F8CF30988704772B61168016009B99E
:1008D00062B6F9E74FF000674FF0E028C8F8047DF2
:1008E00062B6D4E770470000D86001347461013407
:1008F000706101347C610134026922F00702A2F1C7
:1009000044026FF0020313604FF0000353609360E2
:10091000D360136153619361D36113625362936235
:10092000D362136353634FF0FF339363D1634FF08C
:1009300080731364826070472249086800F10100E7
:100940000860214B1A683AB1A2F101021A601AB983
:100950001E4B4FF0010018601D490868026822B163
:100960001C4B4FF001021A6008E000F104001A4B22
:100970001A68904201D1194B18680860134B1A6825
:1009800012B914490868C8B101B51249086808B11C
:1009900011F07EFF0D4B1A6872B111F021FF104863
:1009A000016849B90F4801680F4A13680F484FF0B2
:1009B0008052994200D00260BDE80140BFF34F8FE2
:1009C00070470000F06601347C610134EC6601344C
:1009D000606601345C660134646601346866013423
:1009E000D8600134746101347061013404ED00E0B9
:1009F00090EDAD6A30B52DED108B90EDA87BB5EE86
:100A0000C06A87B08DED027B002390EDA47BF1EEF0
:100A100010FA91ED015A91ED004A91ED02FB91ED32
:100A200004EB044690ED123B90EDAACB90ED16AB93
:100A30008DED047B90EDA6BB80F8603009DCD0F82A
:100A4000C832D14898474FF0FF3007B0BDEC108B4B
:100A500030BDB8EE455B9FEDBE7BB8EE444B25EE56
:100A6000077BB4EEC47BF1EE10FA0FDD90ED1C7B3A
:100A70009FEDB92B37EE022B9FEDB97BB4EEC72B60
:100A8000F1EE10FA37FE027B80ED1C7B9FEDB67B0A
:100A900025EE075BB4EEC45BF1EE10FA10D594EDD1
:100AA0001C7B9FEDAD5B37EE457B9FEDB15BB4EEFC
:100AB000C57BF1EE10FA58BFB0EE475B84ED1C5BCE
:100AC00083EE0C8BBCEEC88BB8EE488B94F850507C
:100AD00028EE0C8B012DB7EEC66A40F0AC809FED7E
:100AE000A67B3FEE4E5B85EE07DB3FEE0E5B85EEB1
:100AF000079BB0EECD7BB4EEC76BF1EE10FAB0EE13
:100B0000C95B1FDBB4EEC56BF1EE10FA1ADB0023F4
:100B100084F8783094ED1A7BB5EEC07BF1EE10FAD4
:100B200040F33481012384F860309DED027BB4EE04
:100B3000C7ABF1EE10FA40F13C819DED047B3AEE3B
:100B400007BB28E1B4EEC56BF1EE10FA0CD589EEC7
:100B50000D5B94EDAE6AB0EEC55BB7EEC66AB4EE5F
:100B6000C65BF1EE10FAD5DAF7EECA0BB7EEC70B9B
:100B700019F01EFBB2EE047BB7EEC00A20EE070BA5
:100B8000FCEEC87BB0EECE6BCDED017AB0EECF7B44
:100B9000B4EEC67BF1EE10FA62DCB5EEC0EBF1EE1E
:100BA00010FA62D538EE000B94ED3C7BB4EEC07BBE
:100BB000F1EE10FA03D5B0EE4BABB0EE470B94ED6F
:100BC0003A7BB4EEC07BF1EE10FA03DDB0EE4BAB36
:100BD000B0EE470B80EE0C8BBCEEC88BB8EE488BAA
:100BE000012D2CEE088B16D1B4F8E030022B3FD843
:100BF000DDED017AB8EE677B04EBC30282ED207B6A
:100C000082ED268B04EB0312013382ED2CDB82EDA7
:100C10002E9BA4F8E03094F87830012B07D0FCEE3E
:100C2000C87B17EE903A019A93423FF473AF0123C9
:100C300084F860306EE7B0EECF7BB0EECE5BB4EE02
:100C4000475BF1EE10FA35FE077BB4EEC67BF1EEA2
:100C500010FA7FF65FAF9FED4A9BB0EE49DB83E76A
:100C6000B5EEC0FBF1EE10FA9CD538EE400B9BE7D9
:100C700094ED2A7B94EDAF6A38EE477BB7EEC66AF7
:100C8000B0EEC77BB4EEC67BF1EE10FA56DB94ED06
:100C9000287B38EE477BB0EEC77BB4EEC76BF1EE36
:100CA00010FA4BDD94ED320B94ED307B39EE400BB6
:100CB0003DEE477B20EE000BA7EE070B18F048FE39
:100CC00094EDB07AB7EEC77AB4EEC70BF1EE10FA36
:100CD00034D5DDED017AB8EE678B84F8785094F85E
:100CE0007830002B97D1102204F1880104F18000A4
:100CF00016F032FD102204F1A00104F1980016F064
:100D00002BFDD4E93023DDED017AB8EE677BC4E931
:100D10002C23D4E9322384ED247BC4E92E23D4E9A7
:100D2000342384ED2A8BC4E93023D4E9362384EDBF
:100D300034DB84ED369BC4E932236CE794F87830D9
:100D4000012B04BF002384F87830C8E7AFF300809C
:100D50009A9999999999A93F7B14AE47E17A843F72
:100D6000343333333333C33F333333333333C33F1A
:100D7000111111111111B13FCD3B7F669EA0F63FBD
:100D800000000000000000001055187094F860305A
:100D9000002B7FF4CAAE88EE0C7BBCEEC77BB8EEAE
:100DA000477B27EE0C7B84ED16BB84ED127B012084
:100DB0004BE69DED02BBEEE790ED1A6BB5EEC06B16
:100DC00090ED124BF1EE10FA90EDAA5BB0EE467B7F
:100DD000DFBF84EE057BBCEEC77BB8EE477B27EE1A
:100DE000057BB7EEC77B90ED3C5BB7EEC74AB4EE30
:100DF000C54BF1EE10FAC8BFB7EEC57B90ED3A5B7C
:100E0000B7EEC74AB4EEC54BF1EE10FA48BFB7EEE5
:100E1000C57BB7EEC75AD0F8743230B580ED125B9F
:100E200093ED005AD0EDAC7AB4EEC75AF1EE675AA2
:100E3000F1EE10FA4FF00001B0F8F83075FEA77A25
:100E4000013B8AB2934205D8442202FB030303F517
:100E5000907311E000EB8204D4ED445A77EEA55A6A
:100E6000F4EEC75AF1EE10FA01F10101E9DB442377
:100E700003FB020202F59073B5EEC06BF1EE10FABF
:100E8000C0F8743205DC93ED007AB7EEC77A80EDD6
:100E9000127B5A6803F1380142609A6803F1240416
:100EA0008260DA68C2601A69026100F138025D6925
:100EB0000C334561DD680C30C5601D69A3420561D6
:100EC00051F8045B42F8045BF1D1012030BD10B54C
:100ED000044690B070B10023084C40212370C4F840
:100EE000C802074B6846074A16F0F2FA6846D4F87B
:100EF000C8329847204610B010BD00BF200400340F
:100F00007089187050551870002814BF01204FF0D8
:100F1000FF30704780ED000A30B50C6844604C68C3
:100F200084608C68C460C96802F12404016100F126
:100F3000380115680C32456152F8085C0C30C56008
:100F400052F8045CA242056153F8045B41F8045B6B
:100F5000EFD130BD2DE9F04F2DED068B0E46B0EEF2
:100F6000409BB0EE418B1D460446C7B0002800F000
:100F70008F819FEDCBAB80ED12AB0020CE494FF0BF
:100F80000008C4E91601C4E9A601C4E9AA01CB49D5
:100F9000DFF85C93C4F8B0124FF07E51C4F8B4127D
:100FA0004FF07C51C4E91A890FF2FC29D9E9008974
:100FB000C4E91C89C4E9A4894FF00008C4F8B81238
:100FC000BF49DFF83093C4F8BC124FF07F510023C3
:100FD000C4E9A88901274FF00008C4F8C012711EA7
:100FE000DFF8149388B20428C4E9A0890FF2C0295D
:100FF000D9E9008984F86030C4E9A289A4F8E03016
:1010000084F87830A4F8787214D905234FF48071ED
:10101000AC4A06A816F05CFAD4F8C83206A898477D
:1010200084F85070204647B0BDEC068BBDE8F04F09
:10103000FFF7C2BE95ED007AB7EEC77AB4EEC70BE4
:10104000F1EE10FA12DDD4F8C8329F48984795EDBA
:10105000007AB7EEC77A8DED009B8DED027B9B4A3F
:101060004FF4807106A816F033FAD5E74FF0440C20
:101070000CFB065818ED117AB7EEC77AB4EEC71B11
:10108000F1EE10FA41D5D4F8C8329148984798ED5E
:10109000007AB7EEC77A8DED008B8DED027B8D4A1D
:1010A000DEE70CFB08F705EB070944372F4499ED01
:1010B000007AD7ED007AB4EEE77AF1EE10FA08F193
:1010C000010A00F1010021DBD4F8C83282489847B8
:1010D00097ED007AB7EEC77A8DED047BCDF808A0C6
:1010E00099ED007AB7EEC77A43468DED007B7B4AD7
:1010F0004FF4807106A816F0EBF9D4F8C83206A8B0
:101100009847012384F850308CE718461FFA80F87E
:101110004145C6D800234FF0440CB01E9FB2B942DF
:1011200039D884ED3A9B84ED3C8B0020A4F8F8601C
:1011300083B2994200F1010000F28B800027B8468B
:1011400004F1FC0A04F5907905EB070B09EB0700A5
:101150004422594616F0B1FDDBF8003008F10108D1
:101160004AF8043B1FFA88F39E4207F14407EBD884
:10117000731E9BB2002E03F1010314BF1A46012215
:10118000C4F8749204F5B271013A6AD1012384F86B
:101190005030237046E702EB8709B842D9ED007A58
:1011A0004FEA870807F1010A1ED908F104089044A4
:1011B00098ED007AB4EEE77AF1EE10FA14D8D4F88C
:1011C000C8324748984798ED007AB7EEC77A8DED58
:1011D000047BCDF808A099ED007AB7EEC77A3B46BC
:1011E0008DED007B3F4A83E70CFB07F805EB080A0F
:1011F0009AED007AB4EEE77AF1EE10FA08F14408BD
:10120000A84408DA98ED007AB4EEE77AF1EE10FA25
:1012100003F1010382D8D4F8C8323348984798EDD7
:10122000007AB7EEC77A8DED047B9AED007AB7EEBF
:10123000C77A8DED027B99ED007AB7EEC77A3B460F
:101240008DED007B4FF48071284A06A816F040F916
:1012500053E702EB83073F6804EB8303C3F8107185
:1012600066E7D4F8743291ED006A93ED007AB7EE38
:10127000C66AB7EEC77A36EE4A6B37EE4A7BB4EEF3
:10128000C76BF1EE10FA48BFC4F8741244317BE723
:101290004FF0FF3047B0BDEC068BBDE8F08F00BFCC
:1012A000000000000088B3409A9999999999B93F34
:1012B0000000000000A06E400000F03F0000484227
:1012C00000002F4360551870A45518702B561870E5
:1012D00089561870115718706E571870D2571870B9
:1012E0002A58187099581870035918705A5918705C
:1012F0000000F0BF000008400000244030B5054663
:1013000014468DB052B9D0F8C8321D489847D5F868
:10131000C8321C48984720460DB030BD93ED042BD1
:1013200093ED021B93ED000B0AAA08A906A800F092
:101330002FF8DDE90823CDE90223DDE90A23CDE911
:101340000423012398420446CDE90033DFD16946E6
:101350002846FFF74DFB0128044603D0D5F8C832D4
:101360000948D7E795F86030012BD4D12846FFF71C
:1013700023FD01280446CED0D5F8C8320348C9E77A
:10138000E0591870415A18706A5A18709E5A1870AD
:10139000B5EEC00BF1EE10FA1FB509D4B5EEC01BC7
:1013A000F1EE10FA04D4B5EEC02BF1EE10FA0DD523
:1013B0008DED022B8DED001B53EC102B444815F0E6
:1013C00063FF4FF0FF3005B05DF804FB9FED327B0B
:1013D000B4EEC70BF1EE10FA09DCB4EEC71BF1EE68
:1013E00010FA04DCB4EEC72BF1EE10FA07DD8DED38
:1013F000022B8DED001B53EC102B3648DFE728B194
:1014000089B1B2B93449354B084607E071B1334967
:101410003148002A304A314B18BF13460246304843
:1014200015F032FFCDE72C492C48F2E72B4908464E
:10143000EFE79FED1B7B9FED1C6B21EE077BB3EE6F
:10144000005BA0EE067B9FED1A6BA2EE057BA7EE7C
:10145000065B9FED197B80ED005B27EE417BBBEEC9
:101460000A5BA0EE057B9FED165BA2EE057B27EEE7
:10147000067B81ED007B9FED147B27EE411BB2EED6
:10148000047BA0EE051BA2EE471B21EE061B0120EC
:1014900082ED001B97E700BF0000000000E06F40F6
:1014A0000000000000A063400000000000804740F2
:1014B000000000000000703F000000000080554068
:1014C0000000000000005C40000000000080594067
:1014D000D35A1870115B1870E4AC1170E2AC117043
:1014E000515B18700000000010B5044690B060B168
:1014F0000023074C40212370A065064B6846064A2E
:1015000015F0E6FF6846A36D9847204610B010BD61
:10151000F0060034768918709B5B1870002814BFA1
:1015200001204FF0FF30704738220A23C0E904231E
:1015300064232D227821C0E9063240F2DC5230B516
:10154000C0E9081241F2707442F6E062C0E90A4252
:101550000BA5D5E9004505224FF0000C026548F2C5
:10156000E802C0E910C20122C0E90C4506A5D5E990
:101570000045C0E91223C0E90E4530BDAFF300803D
:1015800000000040E17A943F000000E04D62703FAF
:1015900010B5044620B1FFF7C7FF0120207010BD31
:1015A0004FF0FF30FBE72DE9F0410E4604460028DE
:1015B00000F0E180017801290BD102210170A56CB6
:1015C000C4E90126B54208D2616C914205D9A560F3
:1015D0004CE00229F3D0002049E0D4F810C0B6EE68
:1015E000005B07EE90CAB8EE676A07EE903AB8EE75
:1015F000E77BB7EEC66A37EE057B86EE070B216DFB
:10160000B7EEC00B8B424BD2F0EE007AB4EEE70A95
:10161000F1EE10FA44D4616CB7EE007A8A4220D21F
:10162000012A134638BF012307EE903AF8EEE77A15
:1016300067EE807AFDEEE77A17EE903A8B42C1BFF3
:1016400007EE901AB8EEE76A07EE902AF8EE676A9E
:10165000C3BFC6EE267A0B4680EE270AB0EE470AD5
:101660006360B4EEC70AF1EE10FA02DC0120BDE8B7
:10167000F081B7EEC00A18F037F9B3EE047B20EE24
:10168000070B9FED3F7B20EE070BBDEEC00B10EE6E
:10169000103AE26C33449342D4BFA360A260E5E702
:1016A000ACEB0307E16987EAE770A0EBE7708842DB
:1016B00047D8606AD4F814E0A1690EEB0C0898458D
:1016C00007FB01F143D207EE900A9FED2F7AF8EE67
:1016D000E77A67EE877A07EE101AF1EE676AB8EEDE
:1016E000C77AB4EEE67AF1EE10FA04D5FDEEE77AA9
:1016F00017EE903A59420029B8D0B54232D1606C09
:10170000904201D800292DDA02FB077707EE902AD4
:1017100006EE907A0029B8EEE77BB8EEE66B1EDAAB
:1017200094ED0E5BA5EE067BBDEEC77B17EE102A8F
:10173000236C9A42B8BF1A468242D4BF626060608E
:1017400094E7216A88422CBFE06AA06AB2E7ACEB5A
:101750000E0C9C458ADD8142A8BF0146CBE794ED83
:101760000C5BDFE70E44B5423FF731AFE56CB542A5
:10177000A8BF35462BE74FF0FF3078E7AFF3008086
:101780000000000000408F409A99593F034613F82B
:10179000012B002AFBD1181A0138704781F0004153
:1017A00002E000BF83F0004330B54FEA41044FEA46
:1017B000430594EA050F08BF90EA020F1FBF54EAE1
:1017C000000C55EA020C7FEA645C7FEA655C00F07D
:1017D000E2804FEA5454D4EB5555B8BF6D420CDD4E
:1017E0002C4480EA020281EA030382EA000083EAD1
:1017F000010180EA020281EA0303362D88BF30BD71
:1018000011F0004F4FEA01314FF4801C4CEA1131C6
:1018100002D0404261EB410113F0004F4FEA033325
:101820004CEA133302D0524263EB430394EA050FB0
:1018300000F0A780A4F10104D5F1200E0DDB02FA1F
:101840000EFC22FA05F2801841F1000103FA0EF2B3
:10185000801843FA05F359410EE0A5F120050EF179
:10186000200E012A03FA0EFC28BF4CF0020C43FAAA
:1018700005F3C01851EBE37101F0004507D54FF0B7
:10188000000EDCF1000C7EEB00006EEB0101B1F507
:10189000801F1BD3B1F5001F0CD349085FEA30004D
:1018A0004FEA3C0C04F101044FEA445212F5800F58
:1018B00080F09A80BCF1004F08BF5FEA500C50F1F5
:1018C000000041EB045141EA050130BD5FEA4C0CD8
:1018D000404141EB0101013C28BFB1F5801FE9D235
:1018E00091F0000F04BF01460020B1FA81F308BF58
:1018F0002033A3F10B03B3F120020CDA0C3208DD24
:1019000002F1140CC2F10C0201FA0CF021FA02F1FE
:101910000CE002F11402D8BFC2F1200C01FA02F16E
:1019200020FA0CFCDCBF41EA0C019040E41AA2BF93
:1019300001EB0451294330BD6FEA04041F3C1CDA5B
:101940000C340EDC04F11404C4F1200220FA04F07B
:1019500001FA02F340EA030021FA04F345EA030125
:1019600030BDC4F10C04C4F1200220FA02F001FAE7
:1019700004F340EA0300294630BD21FA04F0294669
:1019800030BD94F0000F83F4801306BF81F4801102
:101990000134013D4EE77FEA645C18BF7FEA655C75
:1019A00029D094EA050F08BF90EA020F05D054EA47
:1019B000000C04BF1946104630BD91EA030F1EBF4C
:1019C0000021002030BD5FEA545C05D14000494150
:1019D00028BF41F0004130BD14F580043CBF01F543
:1019E000801130BD01F0004545F0FE4141F4700129
:1019F0004FF0000030BD7FEA645C1ABF1946104604
:101A00007FEA655C1CBF0B46024650EA013406BF04
:101A100052EA033591EA030F41F4002130BD00BFC3
:101A200090F0000F04BF0021704730B54FF4806480
:101A300004F132044FF000054FF0000150E700BF01
:101A400090F0000F04BF0021704730B54FF4806460
:101A500004F1320410F0004548BF40424FF000014D
:101A60003EE700BF42004FEAE2014FEA31014FEA90
:101A700002701FBF12F07F4393F07F4F81F06051DF
:101A8000704732F07F4208BF704793F07F4F04BF2A
:101A900041F40021704730B54FF4607401F0004507
:101AA00021F000411CE700BF50EA010208BF704767
:101AB00030B54FF000050AE050EA010208BF704758
:101AC00030B511F0004502D5404261EB41014FF4C1
:101AD000806404F132045FEA915C3FF4D8AE4FF0C9
:101AE00003025FEADC0C18BF03325FEADC0C18BFAC
:101AF000033202EBDC02C2F1200300FA03FC20FAFD
:101B000002F001FA03FE40EA0E0021FA02F1144449
:101B1000BDE600BF7BB972B90029BEBF00204FF0FF
:101B2000004106E008BF00281CBF6FF000414FF0E5
:101B3000FF3000F0C9B9ADF1080C6DE904CE002901
:101B400009DB002B1ADB00F04DF8DDF804E0DDE9DD
:101B5000022304B07047404261EB4101002B1BDBC4
:101B600000F040F8DDF804E0DDE9022304B0404273
:101B700061EB4101524263EB43037047524263EB16
:101B8000430300F02FF8DDF804E0DDE9022304B0A0
:101B9000404261EB41017047524263EB430300F066
:101BA00021F8DDF804E0DDE9022304B0524263EBE2
:101BB0004303704753B94AB9002908BF00281CBF26
:101BC0004FF0FF314FF0FF3000F07EB9ADF1080C5F
:101BD0006DE904CE00F006F8DDF804E0DDE902234B
:101BE00004B070472DE9F04F099D0C46002B4DD1F4
:101BF0008A420F4684469646B2FA82F360D94BB1C8
:101C000002FA03FEC3F120029F4000FA03FC20FA0F
:101C100002F217434FEA1E461FFA8EF44FEA1C42A7
:101C2000B7FBF6F106FB117701FB04F042EA07422D
:101C3000904208D91EEB020201F1FF3702D2904216
:101C400000F22D813946121A1FFA8CFCB2FBF6F015
:101C500006FB102200FB04F44CEA024C644508D950
:101C60001EEB0C0C00F1FF3202D2644500F21A8127
:101C7000104640EA0140ACEB040C002125B12CFADF
:101C800003F30022C5E90032BDE8F08F8B4205D98D
:101C90000DB1C5E9000100210846F5E7B3FA83F16B
:101CA00000294DD1A342C0F0F280904280F0EF8035
:101CB000064623460846002DE6D0C5E90063E3E763
:101CC000002B40F0A2808A1A4FEA1E471FFA8EF6B8
:101CD0000121B2FBF7F407FB14204FEA1C4242EA51
:101CE000004206FB04F090420FD91EEB020204F101
:101CF000FF382CBF4FF001094FF00009904203D983
:101D0000B9F1000F00F0C8804446121A1FFA8CFC8B
:101D1000B2FBF7F007FB102200FB06F64CEA024C80
:101D2000664508D91EEB0C0C00F1FF3202D2664565
:101D300000F2BB801046ACEB060C40EA04409DE785
:101D4000C1F120068B4004FA01FE22FA06F720FAC0
:101D500006FCF4408A401F434EEA0C0300FA01FEE1
:101D60004FEA17484FEA13491FFA87FCB4FBF8F013
:101D700008FB104449EA044400FB0CF9A1450ED9C4
:101D80003C1900F1FF3A2CBF4FF0010B4FF0000B54
:101D9000A14503D9BBF1000F00F093805046A4EB9E
:101DA00009041FFA83F9B4FBF8F308FB134403FB9F
:101DB0000CFC49EA0444A44506D93C1903F1FF3858
:101DC00001D2A4457AD8434643EA0040A4EB0C0470
:101DD000A0FB02984445CC46434602D306D1CE45EB
:101DE00004D20138B9EB020C68EB07035DB1BEEB1E
:101DF0000C0264EB030404FA06F622FA01F3CC4069
:101E00001E43C5E9006400213EE702FA03FEC3F168
:101E1000200104FA03F200FA03FCCC404FEA1E470B
:101E200020FA01F11FFA8EF6B4FBF7F00A4307FB24
:101E30001044110C41EA044100FB06F48C420ED917
:101E40001EEB010100F1FF382CBF4FF001094FF0EC
:101E500000098C4202D9B9F1000F2CD04046091B71
:101E600092B2B1FBF7F407FB141142EA014204FB02
:101E700006F1914207D91EEB020204F1FF3801D2AC
:101E8000914215D84446521A44EA004121E7861A85
:101E900064EB030301200EE7023C724435E702398C
:101EA0007244D0E6F4440238E3E6F444023842E7F0
:101EB000023C7244E7E702387144D0E7023B3C44FD
:101EC00082E702383C446AE7704700BF2DE9F843D7
:101ED00000244FF001092646DFF86880154F4021A5
:101EE000404604F051FF08BB46B93B7833B9124B6A
:101EF00083F80090114B1E70114B1E7001264FF499
:101F00000051404604F040FF0128054610D144B975
:101F10003B7833B1084B3C701C70084B1C70084B6D
:101F20001C70012010F0D6FA2C46D8E70026E6E710
:101F30000025F6E7530700345207003451070034F8
:101F4000500700340008025608B5044C4FF0FF312A
:101F5000204610F02BFF00F08DFFF7E7F8BF0034AC
:101F600030B52DED028B89B005466846F0EE408A0B
:101F7000B0EE608A0C4600F0C3FF04A800F0CAFF70
:101F8000DDED047A9DED067AF8EE677AB8EE477AD1
:101F9000A7EEA87ADDED057AF8EE676ADDED077A3F
:101FA000F8EE677AE6EE887ADDED026AF8EE666AA8
:101FB00037EE667ADFED126A27EE267ADDED006AEB
:101FC000B8EE666AC7EE066A9DED037AB8EE477A08
:101FD00077EEC77A9FED0B7AFDEEE66A67EE877AB9
:101FE0009DED017AC5ED006AF8EE476A87EEA67AA4
:101FF000BDEEC77A84ED007A09B0BDEC028B30BD2E
:10200000000048440000F0432DE9F04F8FB006A8CF
:1020100001F04EF901F034FADFF880A1DFF87481A5
:10202000504600F038FE00260446049602F066F89A
:10203000012106AB04AA019003A8039401F04EF914
:1020400002F05CF84FF0FF318146504810F0DEFDA1
:10205000049CC8F854602546A4B1059B3546B3429C
:1020600003F1010CB5EE006AF7EE007A4FF0180BA1
:10207000B8BF4FF0010CDFF828E1BCF1010C01D032
:10208000142D20D1DFED427A4FF0FF30019BC8F8CC
:102090005450A9EB0303C8F840323E4B0135013DD3
:1020A00066D13D4B1A68824202D0186001F01EFAD8
:1020B000364810F0DDFD504600F0EBFD01214046B2
:1020C00010F0F2FDACE76369052B4FD894ED047A6C
:1020D000B4EEC67AF1EE10FA48D4B4EEE77AF1EE37
:1020E00010FA43DCD4ED006AF5EEC06AF1EE10FAA6
:1020F0003CD4F4EEE76AF1EE10FA37DCD4ED016A75
:10210000F5EEC06AF1EE10FA30D4F4EEE76AF1EEC3
:1021100010FA2BDCD4ED026AF5EEC06AF1EE10FA8B
:1021200024D9F4EEE76AF1EE10FA1FDCD4ED036A6D
:10213000F5EEC06AF1EE10FA18D9F4EEE76AF1EEA6
:1021400010FA13DC0EEB8303D3ED006AB4EEE67AEB
:10215000F1EE10FA0ADB27460BFB05860FCF583647
:102160000FC697E8030086E803000135183484E7BA
:1021700093ED1A7AB4EEE77AF1EE10FA03F1180350
:10218000C4BF586DF0EE477A89E700BF1072003483
:1021900000000000F0710034000000343808003402
:1021A000F8A8117008B50021054800F057FD30B1BE
:1021B00000F055FEBDE80840014800F082BD08BDB2
:1021C000A0710034014810F011BE00BFF8BF003408
:1021D00008B5064B1B783BB900F0FAFF00F0EAFFA8
:1021E000BDE8084000F02BBE08BD00BF5307003417
:1021F0000368002BBCBF002303600B68002BBCBF2F
:1022000000230B600368B3F5487FA4BF40F21F337F
:1022100003600B68B3F5F07FA4BF40F2DF130B60DF
:1022200070470000000000002DE9F04F2DED068BF7
:10223000ADF5137DD44C4FF0FF31204610F0B6FDC4
:102240004FF0FF3104F1200010F0E0FC4FF4FA727F
:1022500004F1540115A815F030FDD4E98E56676DD0
:1022600004F1200010F004FD002FCCBF0022012259
:102270004FF48061C54804F08DFD01F03FFF00F090
:10228000D5FF0021002308464FF4487200934FF415
:10229000F07311F041FDBE4800F054FE002306AA81
:1022A0001946BB4800F08CFE6FF0FF0011F038FBC0
:1022B00011F046FB002101220846B64B01F052FD09
:1022C0004FF0FF3011F02CFB11F03AFBC1880222D5
:1022D000B14B4900002001F045FD11F031FB9DEDAF
:1022E000067AB7EEC77AC18802228DED007BAB4B30
:1022F00001EB4101002001F035FD11F021FBC18807
:102300000222A74B01EB8101002001F02BFD11F00F
:1023100017FBC188062002224143A24B00200096F1
:1023200001F020FD11F00CFBC1880222C900002041
:102330009D4B01F017FD11F003FBC18801EBC101BA
:10234000002D00F00C8107EE905A9FED8B5BB8EEEC
:10235000677B85EE076B8DED006B0222934B0020AF
:1023600001F000FD11F0ECFAC1880B20022241437C
:102370008F4B002001F0F6FC11F0E2FAC1880C202E
:10238000022241438B4B0020009701F0EBFC002F11
:1023900040F3E880884811F0C3FA11F0D1FA874B76
:1023A000C1880E2002224143002001F0DBFC4FF0E7
:1023B000FF3011F0B5FA824B1B7803F0FF04002BBD
:1023C00000F014816FF0FF0011F0AAFA11F0B8FAD2
:1023D000C18802227B4B0901002001F0C3FC11F0EF
:1023E000AFFA0222C1880020774B01EB011101F006
:1023F000B9FC4FF0FF3011F093FA03224FF4B4719F
:102400000020724B01F0AEFC00244FF0030A4FF0A5
:102410001C096F4E6F4DDFF8D08156F8040B11F098
:102420007FFAB4FBFAF101EB4101611A09FB01F1FA
:1024300055F8043B032CCDE90043ACBFD22000206B
:102440004346032201F5C071013401F08BFC062CD8
:10245000E3D14FF0FF3011F063FA4FF0000ADFEDE7
:102460005EAA15ACBA45C0F2D7800DA800F048FDB1
:1024700011A800F04FFD139B9FED584A03930F9B4B
:10248000109A07EE903A0D9BF8EE675A07EE903AD5
:10249000B8EE676ADDED037AF8EE677A77EEE57AF3
:1024A00067EE847A87EE867A07EE902A149BF8EE20
:1024B000676A07EE903ABDEEC77AF8EE677ADFED0D
:1024C000484A8DED097A77EEE67A9DED0E7A67EE51
:1024D000A47AB8EE477A03990492119A87EE875A44
:1024E0008A1807EE902AF8EE677A77EEE57A67EEBB
:1024F000847A129AC7EE865A134407EE903AF8EEA1
:10250000677A77EEE67A67EEA47AC7EE876ABDEE61
:10251000C55AFDEEE55AFDEEE66A4FF0FF340AA912
:1025200009A88DED0A5ACDED0B5ACDED0C6AFFF7D7
:102530005FFE0CA90BA8FFF75BFE4FF0FF3011F018
:10254000EFF9DDE90901DDE90B2300945B1A121AAA
:1025500011F0C0FB00F080FE01F0D0FD6AE69FEDB7
:10256000086BF8E64FF0FF2011F0DAF911F0E8F906
:102570001C4BC18815E700BF0000000000408F40E1
:102580000000000000000000F0710034001002564E
:10259000580700342CA811704BA8117054A8117062
:1025A0005BA8117065A811706AA811706EA81170EF
:1025B00073A811707BA811700000FFFF7EA8117036
:1025C000530700348AA8117090A81170AAA811703E
:1025D00010A9117098A911700000C8420000484469
:1025E0000000F04385A81170B3A811706FF47F004C
:1025F00011F096F911F0A4F9C1880222454B0901A6
:10260000204601F0AFFB11F09BF9C1880222204661
:10261000414B01EB0111EAE6D4ED018AD4ED029AB7
:10262000B6EE008A94ED039A94ED04AAF0EE690ADE
:10263000B0EE680AEAEE480AA9EE480A0CA90BA80F
:10264000FFF78EFCF0EE690AB0EE680A11A90DA83A
:10265000EAEE080AA9EE080AFFF782FC0B9B07A81E
:1026600007930C9B08A908930D9B0993119B0A9350
:10267000FFF7BEFD09A80AA9FFF7BAFDDDF81C8027
:10268000056808F10203AB4203933FDA08990A9EFA
:102690008B1CB342049339DAD4F818B00591BBF11E
:1026A000050F8CBF4FF0FF391C4BA5EB080598BFF9
:1026B00053F82B90484611F033F905992A46761ABB
:1026C00033464046CDF8009011F004FB0599B31E47
:1026D000AA1E013108F10100CDF8009011F0FAFABC
:1026E000DDE90301D4ED057A67EEAA7AFDEEE77A1B
:1026F0000B4BCDED017A53F82B3003220093094B9D
:1027000001F030FB4FF0FF3011F00AF90AF1010A35
:102710001834A7E69CA81170A1A8117010A9117017
:1027200080A91170BBA811702DE9F84F11F096F82F
:10273000D0E90237FF1A11F095F8D0E90232A2EB86
:10274000030901F0DBFC00210646C14800F086FACF
:10275000002100F07FFBDFF8F8B2BE4B07F11F0449
:102760001B7824F01F04002B00F09180BA4B1B78DB
:10277000002B00F08880DFF8008398F8003003F029
:10278000FF0A002B7FD10121B44800F067FAB44A58
:10279000054611467B1C013B58D1002C16DDBFF3CA
:1027A0004F8F631E203C5B09203403F1010ED8BF1C
:1027B0004FF0010E4EF001E0AA49C1F86822203224
:1027C0000FF005C8BFF34F8FBFF36F8F01F096FC7A
:1027D00052460446A249002010F076FF09F11F037B
:1027E00023F01F03002B82461DDD05F01F021A4354
:1027F000BFF34F8FEB4305EB020C6344203A5B09B8
:10280000203203F1010ED8BF4FF0010E29464EF0E1
:1028100001E09448C0F85C1220310FF005C8BFF306
:102820004F8FBFF36F8F29464A46002010F066FF96
:102830004AEA000A1AF0FF0510D0884800F029FA89
:10284000012388F80030B246564686E708780AF138
:10285000010A80F0800001F8010B9CE782480BF030
:102860007FFC01F04BFC041B7C4800F02AFA4FF07F
:10287000FF317E4810F0CAF97D48C0E98E542030FF
:1028800010F0F6F9DCE70A200FF024FEDBE701F098
:1028900035FC8246584600F0FEF9012105466F4896
:1028A00000F0DCF9002C80461DDD05F01F022243FC
:1028B000BFF34F8FEB4305EB020C6344203A5B09F7
:1028C000203203F1010ED8BF4FF0010E29464EF021
:1028D00001E06448C0F85C1220310FF005C8BFF376
:1028E0004F8FBFF36F8F634B1A78002A76D12A4639
:1028F0007B1C013B40F0A680002C1CDD05F01F0076
:102900002043BFF34F8FEB432C18234420385B093F
:10291000203003F1010ED8BF4FF0010E2A464EF0D1
:1029200001E05049C1F8682220320FF005C8BFF31A
:102930004F8FBFF36F8F01F0E1FB294604463A4603
:10294000002010F0C1FE09F11F0323F01F03002B2C
:1029500005461EDD08F01F021A43BFF34F8F6FEAD2
:10296000080308EB020C6344203A5B09203203F1B0
:10297000010ED8BF4FF0010E41464EF001E039483C
:10298000C0F85C1220310FF005C8BFF34F8FBFF3C2
:102990006F8F4A464146002010F0B0FE0543EDB26D
:1029A000002D48D130480BF0DBFB01F0A7FB041BE6
:1029B000584600F06EF9294800F083F94FF0FF31D6
:1029C0002A4810F023F92A48AAEB0606C0F83C4230
:1029D000C0F83862203010F04BF935E71E4A127803
:1029E000002A84D13A4629461D4815F066F9002C84
:1029F000204B17DD1A49BFF34F8F621E203C52094E
:102A0000203402F1010ED8BF4FF0010E4EF001E06C
:102A10001448C0F8681220310FF005C8BFF34F8F7B
:102A2000BFF36F8F00221A7001230B490B701249FC
:102A30000A70084A1370584600F02BF9074800F056
:102A400028F901E7117881F0800102F8011B50E7B5
:102A5000A0710034530700345107003438080034A3
:102A60000000009100ED00E004000034107200341A
:102A7000F071003452070034500700342DE9F04360
:102A80004A4C8DB000F010FB94E8030008AA82E8DD
:102A900003000221464800F0C5F8D4E902010AAA61
:102AA00082E803000221434800F0BCF8424800F0ED
:102AB0003BFA424B00224249424800F005F901220C
:102AC0004FF48061404804F065F90022202311464C
:102AD0003E4810F0FDF800223D4C114620232046D0
:102AE00010F0F6F80125C0261D274FF4805804F198
:102AF00020000A244FF01E0934230122002110F087
:102B00000FF800F057FB002100F094F9314BCDE9AC
:102B100005560093CDE9037400232F4A2F490297ED
:102B2000CDF804802E4810F06DF92E4BCDE90556F6
:102B30000093CDE9029900232B4A2C490494CDF847
:102B400004802B4810F05EF92A4BCDE9055600931E
:102B5000CDE903940023CDE90189274A2749284874
:102B600010F050F91C23CDE90233264BCDE9055670
:102B70000093254A002325490494CDF80480244875
:102B800010F040F94FF400630193224BCDE9055654
:102B90000093CDE9037400231F4A2049029720487F
:102BA00010F030F90DB0BDE8F08300BF08A6117039
:102BB000A07100343808003458070034A521107083
:102BC000D1211070C521107000100256F8BF0034DA
:102BD000F071003438AF003429271070C3A8117089
:102BE00038BF0034789E003409201070CDA81170D1
:102BF00078AE0034B88D003429221070D7A8117037
:102C0000B89D0034F87C0034491F1070E1A81170A1
:102C1000F88C003438740034CD1E1070ECA811709C
:102C2000387C003470B520230D4616460A46002134
:102C3000044610F04DF820230022E018114610F051
:102C400047F884F840502DB13368012D63641CBFF0
:102C50007368A3640023A4F84C3070BD003918BF1A
:102C6000012110B54942044610F0A0F80D280ED0FD
:102C700094F84C3004EB8302506C94F840200133FC
:102C8000B3FBF2F102FB113384F84C3010BD00208D
:102C9000FCE710F0ABB810B504464FF0FF31203020
:102CA00010F084F894F84D3004EB8302506C94F8E3
:102CB00040200133B3FBF2F102FB113384F84D30B5
:102CC00010BD203010F092B82DE9F04792B0804648
:102CD0000F4616460021182201A81D4614F056FD85
:102CE00001A80CF0FDF9DDE9013407EE903AF8EEA9
:102CF000676A07EE904ADFED475AB8EE677A9FEDB4
:102D0000466AC7EE257A86EE865AB4EE675AF1EE29
:102D100010FA48BFF0EE457A002227EE866ACDE928
:102D20000B22F4EEC66A4FF448714FF4F07267EE6E
:102D3000A57AF1EE10FACDE907124FF001004FF03D
:102D40000202B4EEE77ACCBFFCEEC66AFCEEE66A9D
:102D5000CDE909020322F1EE10FA0D9216EE902A47
:102D6000CCBFBCEEE77ABCEEC77A01339B1A5B0896
:102D7000109317EE103ACDED0E6A8DED0F7A0134F7
:102D8000E41ADFF8A8C0640811940EAC94E80F00B0
:102D90008CE80F006A4607A901200CF05BF8DDE91A
:102DA00001A91022002109A814F0F0FC4FF480734F
:102DB000CA45524628BF4A46CDE907330323AAEB4A
:102DC000020AA9EB0209CDE90E220A930D934FEAFC
:102DD0005A031093DFF858C04FEA5903119394E84F
:102DE0000F008CE80F006A46022007A90CF032F8A9
:102DF000B8F1000F02D0094BC3F800800FB1084BA7
:102E00001F600EB1074B1E600DB1074B1D6012B065
:102E1000BDE8F0870000F0430000484444C000349F
:102E200040C000343CC0003438C0003428C00034F6
:102E300018C000340A46014601200CF0CDB810B588
:102E400004460CF003F82346BDE81040002201219F
:102E500003F056BB0A46014602200CF0BDB810B57F
:102E600004460BF0F3FF2346BDE810400022022188
:102E700003F046BB0CF090B900B5E5B04FF4C87252
:102E80000021684614F082FC18220023CDE90023BB
:102E90004FF400134FF0805132930323CDE92213F6
:102EA00028236846259305F091F8003818BF0120C3
:102EB00065B05DF804FB0000012808B505D1054B9D
:102EC0001B6803B19847002008BD0228FBD1024BC4
:102ED000F6E700BF44C000343CC00034012808B508
:102EE00005D1054B1B6803B19847002008BD022897
:102EF000FBD1024BF6E700BF40C0003438C00034BD
:102F000010B50446024B0FCB84E80F0010BD00BF84
:102F100028C0003410B50446024B0FCB84E80F00E4
:102F200010BD00BF18C00034054A0021D2F8FC30A3
:102F300043F08073C2F8FC30E02214F027BC00BFDD
:102F400000ED00E070B5044600F1380500F1200600
:102F50000FCE0FC596E8030086B085E803006846EB
:102F600010F014F902A810F01BF904A810F022F9CF
:102F7000DDE90010029B049D039ACB1840EB02028E
:102F80005B19059DC4E90A1042EB0502C4E9083249
:102F900001F0B4F8A36C226E20639B1AB3F57A7F1C
:102FA00004F1380107D3902204F1500006B0BDE8C7
:102FB000704014F0D1BB06B070BD000000000000EE
:102FC000F8B504462DED028B16461D460F46F9B1A5
:102FD000D4E91023D0E90A01801A61EB0301FEF75E
:102FE00063FDD4E90E239FED2E7B41EC180BD4E951
:102FF0000801801A61EB030128EE078BFEF754FDF0
:1030000041EC160B88EE067BB7EEC77B87ED007AA6
:10301000FEB1D4E91C32D4E91601C01A61EB0201F9
:10302000FEF742FDD4E91A329FED1D7B41EC180BEF
:10303000D4E91401C01A61EB020128EE078BFEF7F8
:1030400033FD41EC160B88EE067BB7EEC77B86EDB1
:10305000007AFDB1D4E93432D4E91601C01A61EB2B
:103060000201FEF721FDD4E932329FED0D7B41ECE8
:10307000180BD4E91401C01A61EB020128EE078B8A
:10308000FEF712FD41EC160B88EE067BB7EEC77B10
:1030900085ED007ABDEC028BF8BD00BFAFF3008078
:1030A0000000000000005940F0B5374D87B01822ED
:1030B0000021684614F06AFB00212846334A14F0C8
:1030C00065FBBFF34F8FDFF8E8E000234EF001E02F
:1030D0002F4AE918C2F8701220330FF007C0BFF36F
:1030E0004F8FBFF36F8F2B4C002120462A4A14F0DC
:1030F0004DFBBFF34F8F4BF6803E00234EF001E0B7
:10310000234AE118C2F8701220330FF007C0BFF352
:103110004F8FBFF36F8F01F03FFB642001F07CFB0A
:103120004FF4F076022300244FF44877CDE903638F
:103130001A4B1B4A1B78694602FB03552046009434
:1031400002940197059501F02FFB04230493154B7E
:10315000694601200593CDE901740094039601F0BE
:1031600023FB114810F086FB012010F0B3FB204632
:1031700010F012FE0D4810F0DBFB4FF0FF3010F0A6
:10318000CFFB07B0F0BD00BF0070209100282300E6
:1031900000ED00E0000009910070170034000034D9
:1031A00000B80B0000B8149154AA11701402003436
:1031B00040190100034B04481A78044B00FB02300D
:1031C000704700BF49C0003400B80B000070209168
:1031D000032310B5114C22780132B2FBF3F101EB5D
:1031E0004101521A0E4922700A780132B2FBF3F300
:1031F00003EB4303D21A0A7001F018FB2178094B44
:10320000094C002204FB013104F0B7FC01F00EFB75
:10321000BDE810400022022104F093BC34000034C9
:1032200049C000340070209100B80B0010B572B690
:1032300001F0FCFA054B064C1978064B012204FB01
:10324000013104F09AFC62B610BD00BF48C00034E2
:1032500000B80B000000099110B5114C11492278FB
:10326000114B01FB0233BFF34F8F45F6C05E4EF0AA
:1032700001E00E4AC2F8683220330FF005C8BFF3F0
:103280004F8FBFF36F8F72B601F0D0FA0122022187
:1032900004F057FC62B62378C3F10103237010BD1C
:1032A00048C0003400B80B000000099100ED00E0B8
:1032B0004FF4A8620621C0E90012142282604FF088
:1032C0007A52C260034A0261034A42618A2202764C
:1032D0000EF0E1B96666E63E47D9CB3B13B50C4626
:1032E000012C11461A4605D0E021074B074A084831
:1032F00013F038F8074B0B60036801A801930EF038
:10330000CEF902B010BD00BFDCA9117022AA117065
:10331000EAA911704CC00034044A516853685B1A22
:10332000834200D3704700BFF8E700BF001000E001
:10333000022208B50A4B0B489A620B4B196806A388
:10334000D3E90023A1FB0001FEF734FCBDE80840EF
:10335000FFF7E2BFAFF3008000CA9A3B0000000015
:1033600000140256803801003800003400000000CC
:1033700070B502251A4E1B4C3168A561C8B116A361
:10338000D3E900234FF42F70A1FB0001FEF712FCDC
:10339000FFF7C2FF4FF41670A5623168A1FB000170
:1033A0000DA3D3E90023FEF705FCBDE87040FFF74D
:1033B000B3BF4FF4AF7008A3D3E90023A1FB000112
:1033C000FEF7F8FBFFF7A8FFA5624FF448703168DD
:1033D000E4E700BFAFF3008000CA9A3B00000000A2
:1033E000380000340014025610B5044600F0800086
:1033F000FFF7BEFF04F04000FFF7BAFF04F0200023
:10340000FFF7B6FF04F01000FFF7B2FF04F008006A
:10341000FFF7AEFF04F00400FFF7AAFF04F002007C
:10342000FFF7A6FF04F00100BDE81040FFF7A0BFC2
:1034300070B50446EFF3108572B6FFF779FF04F11B
:103440001E062078FFF7D0FF6078FFF7CDFF03342A
:1034500014F8010CFFF7C8FFB442F2D1FFF768FF80
:1034600085F3108870BD00B589B01E220021684622
:1034700014F08CF96846FFF7DBFF09B05DF804FB38
:1034800070B520220024154B86B00594C3F85C2A41
:10349000D3F85C3202260093009B0123CDE901633F
:1034A00003230F4D01A928460493039403F0CCFA9B
:1034B00022463146284603F06DFC0A4AD2F8FC3019
:1034C00043F08073C2F8FC30074B5C601A6842F02E
:1034D00001021A60FFF7C7FF06B070BD00800256F8
:1034E0000014025600ED00E0001000E030B5044684
:1034F00089B01E220021684614F048F9052C04D931
:1035000009B0BDE83040FFF7AEBF04F1010EBEF1D7
:10351000000FD8BF4FF0010E6B464EF001E0094995
:1035200004EB44028D18885AA978DA1CA3F803002A
:10353000597113460FF007C86846FFF779FF09B0C5
:1035400030BD00BF36AA1170044B82B0C3F85C0ACC
:10355000D3F85C320193019B02B0704700800256A1
:103560002DE9F04F4FF0000B0125022703244FF403
:10357000806699B001F0C4F91422002113A814F058
:1035800005F90820FFF7E0FF1020FFF7DDFF02201C
:10359000FFF7DAFF8020FFF7D7FF4FF40040FFF777
:1035A000D3FF4FF48040FFF7CFFF4020FFF7CCFF61
:1035B0002020FFF7C9FF4FF40050FFF7C5FF01209F
:1035C000FFF7C2FF0420FFF7BFFF01224FF4806125
:1035D000544803F0DFFB00225021534803F0DAFB8C
:1035E00000220821514803F0D5FB01224FF48061ED
:1035F0004D4803F0CFFB4E4813A9CDE91375CDE933
:1036000015B403F021FA5A463946494803F0C2FB83
:10361000444813A9CDE91365CDE9157403F014FAF4
:1036200050234FF008094FF040083F4813A9CDE957
:103630001335CDE9155403F007FA3C4813A9CDE939
:103640001395CDE9155403F0FFF9374813A9CDE9D7
:103650001365CDE9157403F0F7F9364813A9CDE9E0
:10366000138B159503F0F0F94FF4005313A931486B
:10367000CDE9133B159703F0E7F94FF4E133DFF899
:10368000D4A02D4A5046CAE900230C23CAE902BB44
:10369000CAE9053BCAE907BBCAE909BBCAF810B0C9
:1036A00008F05FFA014608B172B6FEE7504608F02E
:1036B000C6FA014608B172B6FEE7504608F0DFFAD6
:1036C00008B172B6FEE7504608F09EFA08B172B62D
:1036D000FEE7DFF884B0194B5846CBF8003004F011
:1036E000E1FA08B172B6FEE7DFF870A0144B50465D
:1036F000CAF8003004F0D6FA08B172B6FEE7114AF3
:10370000114B1046136004F0CDFA08B172B6FEE713
:103710000E4A0F4B1046136004F0C4FA00B372B6A1
:10372000FEE700BF001002560018025600000256C5
:1037300000140256000802560010005200310252D6
:1037400080310252B04F013400320252A44F013492
:1037500080320252104F0134C84F0134BC4F013443
:10376000019058464FF4007B04F0B9FA504604F03B
:10377000B6FADFF844A3BF4804F0B1FABE4804F03B
:10378000AEFACAF858BADAF8582213A903920920F7
:10379000039ACDE9137407F01BFF484613A907F0FD
:1037A00017FF13A90A2007F013FF13A90B2007F036
:1037B0000FFF284613A907F00BFF2146AF4807F07B
:1037C0001DFF2146AE4807F019FF2146AD4807F01E
:1037D00015FF2146AC4807F011FF2146AB4807F022
:1037E0000DFF2146AA4807F009FF2846202104F0D2
:1037F000F1F9494640F20132A64803F0D0FA40F20E
:1038000001321021A44803F0CAFA40F201324FF409
:103810008041A14803F0C3FA40F2013220219F48C1
:1038200003F0BDFA414640F201329C4803F0B7FA7A
:10383000314640F20132994803F0B1FA40F20132C8
:103840001021974803F0ABFA414640F20132944808
:1038500003F0A5FA314640F20132914803F09FFA95
:10386000294640F201328F4803F099FA394640F276
:1038700001328C4803F093FA40F201320421894866
:1038800003F08DFA494640F20132864803F087FA88
:1038900040F201321021834803F081FA40F20132F4
:1038A0002021804803F07BFA414640F201327D48F6
:1038B00003F075FA40F201324FF48071794803F059
:1038C0006EFA594640F20132764803F068FA314602
:1038D00040F20132734803F062FA40F201324FF4D1
:1038E0000061704803F05BFA294640F201326E48ED
:1038F00003F055FA40F2013204216B4803F04FFA0D
:1039000040F201321021684803F049FA40F20132D6
:103910002021654803F043FA294640F2013263480A
:1039200003F03DFA394640F20132604803F037FABD
:1039300040F2013204215D4803F031FA494640F279
:1039400001325A4803F02BFA40F201321021574855
:1039500003F025FA40F201322021544803F01FFA07
:10396000414640F20132514803F019FA40F2013267
:1039700080214E4803F013FA21464D4807F03EFEE1
:10398000019B184600F056FF4FF00043CAF8603A1A
:10399000DAF860220492049A464ACAF8203AC2F839
:1039A0002032CAF8586ADAF858320593059BCAF8EB
:1039B000186AC2F8186208F001FA08F009FA4FF024
:1039C000FF33CAF8843ADAF884221392139ACAF8B9
:1039D0008C3ADAF88C221292129ACAF8903ADAF8F3
:1039E00090221192119ACAF8943ADAF8942210921D
:1039F000109ACAF8983ADAF898220F920F9ACAF8F1
:103A00009C3ADAF89C220E920E9ACAF8A03ADAF89A
:103A1000A0220D920D9ACAF8A43ADAF8A4220C92C8
:103A20000C9ACAF8A83ADAF8A8220B920B9ACAF8AC
:103A3000AC3ADAF8AC220A920A9ACAF8B43ADAF83E
:103A4000B4220992099ACAF8B83ADAF8B822089268
:103A5000089ACAF8BC3ADAF8BC220792079ACAF860
:103A6000883ADAF888320693069B19B0BDE8F04F21
:103A7000FFF704B8B04F0134A44F01341D000020FB
:103A8000050000300600003007000030080000305C
:103A90000A00003000000256000C025600100256C8
:103AA000001802560034025600380256003C0256F6
:103AB0001C000020009002560080025608B52D4BD5
:103AC0001A6842F400521A601A6842F480521A606E
:103AD000A3F573435A6912F4003211D1BFF34F8F2B
:103AE000BFF36F8FC3F85022BFF34F8FBFF36F8FB9
:103AF0005A6942F400325A61BFF34F8FBFF36F8FA0
:103B00001D4A536913F4803328D1C2F88430BFF3BF
:103B10004F8F43F6E074D2F88030C3F3C900C3F38B
:103B20004E335B0100F1010E01464EF001E003EA65
:103B3000040646EA8175C2F8605201390FF007C8E1
:103B4000203B13F1200FEDD1BFF34F8F536943F4A6
:103B500080335361BFF34F8FBFF36F8F00F0D0FE00
:103B600000F0E8FF0DF05CFF0DF034FF00F0C8FE40
:103B7000FEE700BF00E001E000ED00E008B54FF413
:103B800040330748074A0221C0E900230023C0E967
:103B9000021302F026FE08B172B6FEE708BD00BFB0
:103BA000D05001340010025810B5114A114C124B7C
:103BB0002046C4E9002300230122C4E90433C4E9F8
:103BC0000232C4E90633236203F03BFA014608B12E
:103BD00072B6FEE7204603F05BFC014608B172B600
:103BE000FEE7204603F07AFC08B172B6FEE710BD8E
:103BF000005800507C500134FFEDC0302DE9F043F7
:103C00009BB034220021684613F0C0FD342200210D
:103C10000DEB020013F0BAFD0023314C314A2F2185
:103C2000C4E9002302228720C4E90512222240F2BF
:103C3000A735C4E9070240F2022240F2CF36C4E9B8
:103C4000095240F20F222046C4E90B62C4E9023354
:103C50002361A38684F8363003F0E0FE024608B103
:103C600072B6FEE74FF448764FF0FF094FF4F07557
:103C700004234FF4C0680727CDE90160CDE9059022
:103C8000CDE909060090ADF830008DF832006946A4
:103C90002046CDE90353CDE907870B9503F018FFC4
:103CA00008B172B6FEE70823CDE90D06CDE90F0590
:103CB000CDE91308CDE91570ADF864008DF8660004
:103CC000012220460DA9CDE91139CDE9176503F090
:103CD000FFFE08B172B6FEE71BB0BDE8F08300BF7F
:103CE000D44F0134001000580123C02200B589B020
:103CF0000A21CDE905321F23CDE9033102934FF4A8
:103D000080530193064B074A009307490023074855
:103D10000FF078F808B172B6FEE709B05DF804FB61
:103D20004C3E01346135107048AA1170504E013478
:103D300072B6FEE7C0B26DED81CF11B140B101287E
:103D400009D09FEC100A9FE80F90FDEC81CF7447DB
:103D5000024B1960F5E7024BFBE700BF3C51013411
:103D60003851013408B4F3B504460D46164607AB86
:103D7000094F53F8042B30213846019313F04AFCC5
:103D800033463A46294620460FF05AFF02B0BDE8B6
:103D9000F04001B0704700BF40510134044B82B085
:103DA000C3F84C0AD3F84C320193019B02B0704720
:103DB00000800256044B82B0C3F85C0AD3F85C3230
:103DC0000193019B02B0704700800256044B82B001
:103DD000C3F8600AD3F860320193019B02B07047C8
:103DE0000080025608B503F045FF0121084603F0A4
:103DF00011FF03F047FF0121022003F00BFF03F046
:103E000049FFBDE808400021032003F003BF000084
:103E10000268034B9A4202D10220FFF7D7BF7047D6
:103E20000010025810B50446EAB01422002101A87F
:103E300013F0ACFC4FF4C872002106A813F0A6FCE6
:103E40002268174B9A4228D100234FF40052CDE943
:103E50000623144B06A8419304F0B8F808B1FFF705
:103E600067FF0820FFF7A6FF44F21002122300218B
:103E7000CDE901230323CDE9031304230A480DEB05
:103E80000301059302F0E0FD4FF48002074BC3F8F5
:103E9000642AD3F864320093009B6AB010BD00BF5F
:103EA000005800500C040007000C02560080025617
:103EB00008B50268094B9A420FD14FF48002084BB3
:103EC00010210848C3F8642202F0AEFEBDE80840A5
:103ED0004FF48041034802F0A7BE08BD00580050CF
:103EE00000900256000C0256F0B50446EBB01422C6
:103EF000002101A813F04AFC4FF4C872002106A863
:103F000013F044FC22683A4B9A426ED100234FF0E2
:103F10008072CDE906234FF000734C9318234FF0C5
:103F200000510DEB0300CDE9261304F04FF808B162
:103F3000FFF7FEFE02242F4B2046C3F87C4AD3F83D
:103F40007C3200260093009BFFF734FF8020FFF7B0
:103F500031FF2020FFF72EFF0120FFF72BFF40202D
:103F6000FFF728FF03250E2749F63243224801A90F
:103F7000CDE90134CDE90365059702F065FD102315
:103F80001E4801A9CDE90134CDE90365059702F08A
:103F90005BFD4FF440731A4801A9CDE90134CDE926
:103FA0000365059702F050FD49F6A773154801A96E
:103FB000CDE90134CDE90365059702F045FD4BF2EB
:103FC0000623114801A9CDE90134CDE90365059720
:103FD00002F03AFD0123CDE901340A230A4801A980
:103FE000CDE90365059302F02FFD6BB0F0BD00BF76
:103FF000001000580080025600040256001C0256B1
:1040000000140256000002560018025607B54FF47D
:1040100080520120FFF7C2FE0220FFF7BFFE0420FE
:10402000FFF7BCFE0820FFF7B9FE054BC3F8542A82
:10403000D3F854320193019B03B05DF804FB00BF39
:104040000080025610B50446EAB01422002101A8EF
:1040500013F09CFB4FF4C872002106A813F096FBE6
:104060002268144B9A4223D14FF480730022CDE989
:104070000623114B06A85A9303F0A8FF08B1FFF7D7
:1040800057FE10200D4B6022C3F86C0AD3F86C3237
:1040900001A90093009BFFF78DFE0223CDE90123C8
:1040A0000023CDE9033307230548059302F0CCFC38
:1040B0006AB010BD001000523000010700800256A7
:1040C0000010025608B50268094B9A420ED14FF40F
:1040D0008060FFF763FE4FF08040FFF777FE054BEF
:1040E000C3F8200A03F58053C3F8200208BD00BFBF
:1040F00000FC0D5800800256002070470EF0BEBB39
:104100000EF0E8B9FEE7FEE7FEE7FEE7FEE7FEE7B2
:104110007047704708B50AF099FEBDE8084001F005
:10412000A4B808B50AF092FEBDE8084001F0D4B981
:104130000120704708B513F07DFD162303604FF092
:10414000FF3008BD08B513F075FD16230360FEE7C8
:1041500070B50D4614460E46731B9C4201DC20468A
:1041600070BDAFF3008006F8010BF5E770B50D46A2
:1041700014460E46731B9C4201DC204670BD16F8A7
:10418000010B00F061FBF5E74FF0FF3070474FF493
:10419000005300204B60704701207047002070479B
:1041A0000B4A0346116810B509B90A491160106835
:1041B00009490A4C0344091B8B4206D913F03AFD06
:1041C0000C2303604FF0FF3010BD1360FCE700BF0D
:1041D0007051013460960334000020340008000060
:1041E0000F4880F30A880F48854600F03DFB0E48D3
:1041F0000E490F4A002302E0D458C4500433C418B7
:104200008C42F9D30B4A0C4C002301E013600432BA
:10421000A242FBD313F014FDFFF750FCFEE70000B1
:1042200000F81F340000203400000034E4030034A0
:104230008C8918700004003460960334FEE7000097
:1042400008B5044B1A781AB901221A70FFF7ACFCB2
:10425000002008BD7451013408B5064A137833B103
:10426000013BDBB2137013B9034802F03FFF00209B
:1042700008BD00BF745101347C5001341FB54FF4A8
:104280007A740092CDE901340A46022301460448BB
:1042900002F046FF003818BF0120404204B010BDB4
:1042A0007C5001341FB54FF47A740092CDE901348B
:1042B0000A4602230146044803F00CF8003818BFF0
:1042C0000120404204B010BD7C500134FFF716BFFE
:1042D00070B534260D4D0E48AC682D6806FB040001
:1042E000846C05FB0211C06D24B950F82120002018
:1042F0001A6070BD062C05BF01EB41010A5830F869
:10430000112022F07F4218BF92B2F0E778510134B9
:10431000D44F0134F0B534271D4C1E4EA06807FB66
:104320000060D0F848C0C56D206800FB0210BCF1E9
:10433000000F03D145F820300020F0BDBCF1060F7E
:1043400022D15FFA83FC00EB4000033D00F805C07A
:10435000A568206807FB056500FB0210ED6D00EB0A
:104360004000C3F3072C023D00F805C02068C3F3EA
:10437000074300FB0212A16802EB420207FB016641
:10438000F16D01395354D7E79BB225F81030D3E7CC
:1043900078510134D44F0134024B00201B680B606C
:1043A000704700BF78510134024B00205B680B60FE
:1043B000704700BF7851013434200F4B0F4A996089
:1043C00000FB01210A6E1A604A6E5A608A6C042A48
:1043D0000BD0082A0CD0062A0BBF0322042201218D
:1043E00000210020C3E90312704702221146F8E7BA
:1043F00002220421F5E700BF78510134D44F013483
:10440000024B0020DB680B60704700BF785101341D
:104410002DE9F3419046304A0F46D16806460229FD
:10442000089C35D140F2031C40F20F20C4F345151F
:10443000C4F3C4220CFB05F5424304F01F044443BB
:1044400021351732AD0992092D02173445EA02458C
:1044500045EA941545F07F444FF440321F4D204803
:10446000C5E90213C5E90002284602F0BAF978BB93
:104470003B46324621462846CDF8008002F0EEF950
:1044800030BB3221284602B0BDE8F04102F000BA4C
:10449000042917D1C4F3033202EB0210C4F3032240
:1044A00002EB0212120442EA006204F00F0000EB79
:1044B00000100243C4F3031004F0F004044442EA81
:1044C0000424C9E7012914BF002144F07F44C3E755
:1044D00002B0BDE8F08100BF78510134D050013402
:1044E0000010025873B50C4D0C462E69A868194689
:1044F0002B68342502FB0344084A5B1A05FB0022A3
:10450000D06D079A06FB04000092069AFFF780FF21
:10451000002002B070BD00BF78510134D44F013487
:1045200073B50C4D14462E69A8681A462B683425BD
:1045300004FB03140849013B05FB0011C86D0699F3
:1045400006FB040000910121FFF762FF002002B08A
:1045500070BD00BF78510134D44F013437B50C46DB
:1045600019460B4B18681D6900FB024434209A68F9
:10457000084B00FB0233D86D069B05FB040000933B
:1045800001220023FFF744FF002003B030BD00BF2D
:1045900078510134D44F01342DE9F34190461C4A3F
:1045A0000646D5680F46022D07D02A46681E4142AE
:1045B0004141042D14BF0D4615464FF48032154C71
:1045C00015492046C4E900120022FF21C4E9112345
:1045D000A560E260E264216502F003F9A0B901215F
:1045E000204602F0D3F978B901233A4600933146C8
:1045F0004346204602F032F930B93221204602B05B
:10460000BDE8F04102F044B902B0BDE8F08100BF5E
:1046100078510134D0500134001002582DE9F74F81
:10462000294E1C46F3688846022B154607D01A46C9
:10463000581E41424141042B14BF0B4613464FF014
:10464000340A0D9FDFF88490DFF884B02F44BD4218
:1046500003D1002003B0BDE8F08FB16830680AFBD9
:10466000019105FB008C3269C96D02FB0C114243BC
:10467000002A1DDD04F01F001044BFF34F8FE243FA
:1046800004EB000E724420385209203002F1010E72
:10469000D8BF4FF0010EA4464EF001E0CBF868C23F
:1046A0000CF1200C0FF007C0BFF34F8FBFF36F8FDB
:1046B00020460C9A0193FFF76FFF0C9B326901357E
:1046C00002FB0344019BC2E778510134D44F01340B
:1046D00000ED00E04FF0340C2DE9F84F1F4F9D8B9B
:1046E0003C68BE6804FB02111D4A3C690CFB0622B3
:1046F000D66DA5F12002072A04FB0166D3F80A0053
:10470000D3F812A0D3F8169017D9A5F11002082AF1
:1047100034BF4FF0020B4FF0010B4FF00008ED08D3
:104720000AFB05F509F1FF3205FB02006D421C187A
:10473000C84505D10020BDE8F88F4FF0000BECE72D
:1047400031465B4620465246FFF726FF3B693968F3
:104750002C4401FB036608F10108E9E778510134B4
:10476000D44F0134022810B5044605D001280ED0DC
:10477000042814BF04240224064BC3E90304C3E93C
:104780000012FFF7FBF9BDE81040FFF737BA03242A
:10479000F2E700BF785101344FF4F0724FF44871E2
:1047A0000220FFF7DFBF000070B5FF260C468EB079
:1047B00024220021054605A812F0E8FF4FF4C06E40
:1047C00006960726A268E368206804939B1A61682E
:1047D0000C932369CDE908E666690291022BA1EBEF
:1047E0000001019003920A960B910AD104230593CC
:1047F0006B1E5A425A4101A9064803F069F90EB0EE
:1048000070BD042B01D10823F1E7002BF0D0062363
:10481000EDE700BFD44F0134024600B10122082168
:10482000014802F0B7BA00BF0000025600487047C6
:10483000D44F0134034B02221868002380681946C4
:1048400012F092BD2802003407B54FF6FF730190B5
:10485000012201A9034807F0D2F8019803B05DF8DE
:1048600004FB00BF104F01341E491F4AD1F88C30A1
:1048700010B543F44063C1F88C30536B23F0E05320
:1048800043F0805353630022184BC3F88022C3F8CF
:104890008422C3F88822C3F88C22C3F89022C3F87C
:1048A0009422C3F898220122114B8B60114BC3F85C
:1048B000782AD3F878028C680F4803F58053046196
:1048C0000069C3F87822D1F888300C4A43F47003A9
:1048D000C1F88830D2F8883043F47003C2F88830C9
:1048E00010BD00BF00ED00E000EF00E000E100E0DF
:1048F00000041070008002560080005600ED02E0B7
:104900007B4BF0B51A6A02F44012B2F5001F00F0BA
:10491000D18008D8002A39D0B2F5801F3CD00022BF
:10492000744B1A60F0BDB2F5401FF8D1D3F8C42023
:1049300002F04052B2F1805F36D0B2F1005F44D055
:10494000002A52D1D3F8802012F0006402F0E04136
:1049500040F0B980D3F88400D3F88830C2F30B2537
:1049600020F07F400C46B4F1005FC3F3C266C2F38F
:104970000551C3F3026300F0948000F29D80002C87
:1049800047D0B4F1805F7CD0002249E09B6C5A4A4A
:10499000C3F3C113DA40C3E75B6C584A13F4007FDA
:1049A000574B08BF1A46BBE7D3F8902012F00064BB
:1049B00002F0E04140F08780D3F89400C2F30B2569
:1049C000D3F8983020F07F40CCE7D3F8A02012F045
:1049D000006402F0E04176D1D3F8A400C2F30B25C5
:1049E000D3F8A83020F07F40BCE7D3F8B02012F015
:1049F000006402F0E04166D1D3F8B400C2F30B25A5
:104A0000D3F8B83020F07F40ACE70B460E4608469E
:104A10000D46374A976C384AC7F3C117FA403CBB7A
:104A200007EE100AB8EEC76A07EE105A07EE902A92
:104A3000DFED346AB8EEC77AF8EEE77AA6EE267AAA
:104A400067EE877A07EE101AB8EEC77AC7EE876A64
:104A500007EE906AB8EEE77A07EE903AF8EEE77A5A
:104A600027EE277AC6EE877AFCEEE77A17EE902AD1
:104A70001F4BD3F8C430C3F307430133B2FBF3F247
:104A80004EE700241A4A1E4F526C12F4007F1B4A54
:104A900008BF3A46C3E700231E4618461D4619467E
:104AA000F0E70024184ABAE700231E4618461D46C0
:104AB0001946F7E7144A33E7B4F1405F7FF464AF77
:104AC0000024124AABE7B1F1005FEDD006D800290F
:104AD0009BD0B1F1805FDED00022C9E7B1F1405F29
:104AE000FAD100231E4618461D461946E9E700BFC5
:104AF00000800256380000340090D0030024F400F7
:104B000000093D0000008033006CDC020080BB0027
:104B10006DED81CF00B5FFF7F3FE054B5DF804EBBB
:104B200018689FEC100A9FE80E90FDEC81CF744747
:104B30003800003410B5032000F09AF8FFF7E0FECB
:104B40000F20FFF7D9FA044618B9FFF74BF92046B2
:104B500010BD0124FBE738B504680546606810F015
:104B600009003FD1A860012028711220013BE060BC
:104B7000C4F804211A44C4F80821D4F8003123F001
:104B800006031943049BC4F80011012BA3680AD142
:104B900043F01003A360D4F8003143F00103C4F8DC
:104BA000003100201DE023F01003A360D4F8003191
:104BB00043F00103C4F80031FFF7A0FA04462B6864
:104BC0005B68DB06EDD4FFF799FA001BC828F6D91D
:104BD0002B685B68DA06F2D41023AB600623012051
:104BE0002B7138BD0220FCE738B50446E8B10368F4
:104BF0005B68D90707D400202268A060136843F0DF
:104C00000103136038BDFFF779FA054623685B6836
:104C1000DB07F0D5FFF772FA401B0128F6D92368AD
:104C20005B68DA07F2D41023A3600120EAE710B52D
:104C3000044660B103790BB9FFF744FA0023A3607F
:104C4000012323712046BDE81040FFF7CDBF0120AE
:104C500010BD134607B540B1002200920A46062156
:104C6000FFF779FF03B05DF804FB0120FAE70000CD
:104C700007490302CA6803F4E06322F4E062120405
:104C8000120C134343F0BF6343F40033CB6070470F
:104C900000ED00E070B5184CE368C3F30223C3F1E4
:104CA0000705042D03F1040628BF0425062E4FF046
:104CB000FF36A3F1030398BF002306FA05F521EAA6
:104CC00005019E40002801FA03F122EA0602B8BF5E
:104CD00000F00F0041EA0203A8BF00F160404FEA74
:104CE0000313B8BF0438DBB2ABBF00F56140241832
:104CF00080F80033237670BD00ED00E0002807DB6C
:104D000001234109034A00F01F00834042F821308B
:104D1000704700BF00E100E0F8B51446036871BBBE
:104D2000D3F8042422F4C01242EAC442C3F8042493
:104D3000234B022C1A6838D0032C39D0012C3AD1DD
:104D400042F040021A60FFF7D9F94FF400360746E7
:104D50001B4DA640FFF7D2F9C01BB0F57A7F2DD8C6
:104D6000D5F8903036EA0303F4D14FF4885300208D
:104D7000D5F88020A3401343C5F88030F8BD012941
:104D8000D3F8042806D122F4C01242EAC442C3F880
:104D90000428CDE7520341BFD3F8042C22F4C012FB
:104DA00042EAC442C3F8042CC2E742F48062C9E775
:104DB00042F48042C6E742F00402C3E70120DDE787
:104DC00000600058012930B54FF00205046810D189
:104DD0008571D4F800190B43C4F80039C4F8C4290C
:104DE000D4F8F03343F4060343F02003C4F8F0335F
:104DF00030BD08444571D4F8001D0B43C4F8003D94
:104E0000C4F8C42DD4F8F03343F00643ECE770B493
:104E100015461E4699B9022301684371D1F8002551
:104E20003243C1F80025C1F8C455D1F8F03370BC45
:104E300043F4064343F02003C1F8F033704770BCDD
:104E4000FFF7C0BF022383710368D3F8042842F040
:104E50000042C3F80428D3F8002942F00802C3F83E
:104E60000029704769B90368D3F8042442F000426E
:104E7000C3F80424D3F8002542F00802C3F8002543
:104E80007047012901D1FFF7DDBF0368D3F8042C77
:104E900042F00042C3F8042CD3F8002D42F008027F
:104EA000C3F8002D70470000184B10B55A69C9B2FD
:104EB00042F480325A611A6942F001021A615A6959
:104EC00042F480325A6100221A615A615C695C6165
:104ED0001C6944F001041C611A615C6944F480346B
:104EE0005C611C6944F001041C615C69044344F486
:104EF00080345C611A615A615869014359611969CA
:104F000041F0010119611A6110BD00BF0070005825
:104F100010B5044668B103790BB90AF069F90323A7
:104F20000020237101236071A071E071A0602371E2
:104F300010BD0120FCE700002DE9F0410446FEB061
:104F40000D464FF4FC7268463F4912F0B6FE1CB99C
:104F500001207EB0BDE8F081002DF9D03B4B1A68EE
:104F600022F001021A60696801291AD12A6842F404
:104F700004121A671A6842F001021A60D3F88020FE
:104F800042F0B04242F40412C3F880202A68B2F51D
:104F9000807FD3F8842054D1012908D142F01F0228
:104FA00007E00229D4D12A6842F49012E1E742F4E2
:104FB000F8520026264CC3F884202368234F23F0A0
:104FC000020323607E602369012043F00103236113
:104FD000FFF796F82661D5F80880A3685DF83820B9
:104FE00023F4FE4343EA022343F02803A36038215D
:104FF00008201602FFF758FF1121E420FFF754FFA5
:105000000DEBC803D3F80480E3204FEA182146F4DF
:105010008036FFF749FF46F02806E3205FFA88F163
:10502000FFF742FFA6602B680020B3F5807F0CBF1E
:1050300007230F237B60236843F002032360606033
:1050400087E742F4F852A9E718A6117000600058EB
:105050000070005830B558B152B103791468013B63
:10506000012B3ED824F48033B3F5003F02D1F9B1CF
:10507000012039E0022914BF234600235568B4F506
:10508000803F43EA0503056802D0B4F5003F04D130
:1050900002292AD0926843EA022369B1012924D166
:1050A000D5F80418154A0A401A43C5F804280BE03D
:1050B000B4F5403F2346E1D10168104AD1F80444D9
:1050C00022401A43C1F804240368D3F8042122F4CF
:1050D0008042C3F80421D3F8042242F00102C3F84D
:1050E000042202230371002030BDD5F8042C22F0E5
:1050F0003F021343C5F8043CE6E700BFC0C0FCFF15
:10510000F0B1032908D8DFE801F002090F150D4BB3
:10511000120242F001021A6100207047094B12028C
:1051200042F001021A62F7E7064B120242F0010256
:105130001A63F1E7034B120242F001021A64EBE733
:1051400001207047006000580346F0B5002861D088
:10515000002A5FD0022902D1906806285AD85C182C
:1051600060791D79C0B2022DEEB253D110F0FB0070
:1051700050D166711B68176849B9D3F8002522F031
:1051800003023A43C3F8002501236371F0BD0129EE
:10519000D2E9015626D1D3F800291F4922F0030293
:1051A0003A43C3F80029D3F8C02922F00F02324352
:1051B000C3F8C029D3F8CC290A402A43C3F8CC2924
:1051C000F21F012A06D8D3F8DC290A402A43C3F883
:1051D000DC29D9E7092ED7D1D3F8DC290A4042EAE5
:1051E0005502F4E7D3F8002D22F003023A43C3F846
:1051F000002DD3F8C02D22F00F023243C3F8C02D8A
:10520000D3F8CC2D22F4FF4222F07F022A43C3F8C8
:10521000CC2DB9E70120B9E70080FFFFF8B50E46B5
:105220001F46044610B901252846F8BD1D07FAD1CE
:1052300003684518D3F804326D79012DF3D1DB07EB
:10524000F1D5FFF769FD05460028ECD1314620462F
:105250003A46069BFFF7DBFD31462046FFF702FE8C
:10526000E2E77047704770477047036870B5D3F83E
:10527000F86304467204D3F8F05312D5690410D5CC
:10528000D3F8F023002122F48042C3F8F02382688F
:1052900042F0040282604FF48042C3F8FC23FFF71F
:1052A000E1FF72050AD56B0508D54FF480622368CB
:1052B00000212046C3F8FC2309F07AFFB00516D57B
:1052C000A90514D52368D3F80025520707D5D3F8CC
:1052D000F02322F40642C3F8F023012262714FF456
:1052E000007200212046C3F8FC2309F071FFF3058A
:1052F0000AD5E80508D54FF48072236800212046BE
:10530000C3F8FC23FFF7ADFF310416D52A0414D5EA
:1053100023680021D3F8F023204622F40042C3F88A
:10532000F023A26842F00802A2604FF40042C3F8E2
:10533000FC2304236371FFF796FFF3030AD5E80308
:1053400008D54FF48032236801212046C3F8FC239E
:10535000FFF787FF71030AD56A0308D54FF480224F
:10536000236801212046C3F8FC2309F021FFB30381
:1053700016D5A80314D52368D3F80029510707D5FB
:10538000D3F8F02322F40602C3F8F0230122A2711D
:105390004FF4003201212046C3F8FC2309F018FF26
:1053A000320216D52B0214D523680121D3F8F0233D
:1053B000204622F40002C3F8F023A26842F0100253
:1053C000A2604FF40002C3F8FC230423A371FFF78B
:1053D0004AFFF0010AD5E90108D54FF08072236831
:1053E00002212046C3F8FC23FFF73BFF72010AD5D8
:1053F0006B0108D54FF08062236802212046C3F874
:10540000FC2309F0D5FEB00116D5A90114D52368F7
:10541000D3F8002D520707D5D3F8F02322F0064227
:10542000C3F8F0230122E2714FF0007202212046FE
:10543000C3F8FC2309F0CCFE002E16DA002D14DA96
:1054400023680221D3F8F023204622F00042C3F85B
:10545000F023A26842F02002A2604FF00042C3F89D
:10546000FC230423E371FFF7FEFE700614D56906E2
:1054700012D523682046D3F8F02322F04002C3F867
:10548000F023A26842F00202A2604022C3F8FC238B
:1054900004232371FFF7E8FEB20614D5AB0612D53C
:1054A00023682046D3F8F02322F02002C3F8F0232B
:1054B000A26842F00102A2602022C3F8FC23042368
:1054C0002371FFF7D1FE70BD70477047704770477A
:1054D0007047704770470000B54B2DE9F041D3F895
:1054E00090600446B202D3F89480D3F88050D3F889
:1054F00084700DD5A9020BD5D3F8802022F40012B8
:10550000C3F880204FF40012C3F80021FFF7DDFF3D
:10551000320715D52B0713D523680321D3F800359F
:10552000204613F0040FA24B1EBFD3F8802022F0B8
:105530000802C3F880200822C3F80021FFF7CAFF41
:10554000700715D5690713D523680221D3F80035F4
:10555000204613F0040F964B1EBFD3F8802022F094
:105560000402C3F880200422C3F80021FFF7B2FF31
:10557000B20715D5AB0713D523680121D3F8003541
:10558000204613F0040F8A4B1EBFD3F8802022F070
:105590000202C3F880200222C3F80021FFF79AFF1D
:1055A000F00715D5E90713D523680021D3F8003596
:1055B000204613F0040F7E4B1EBFD3F8802022F04C
:1055C0000102C3F880200122C3F80021FFF782FF07
:1055D000320416D52B0414D523680321D3F80035E3
:1055E000204613F0040F724B1EBFD3F8802022F424
:1055F0000042C3F880204FF40042C3F80021FFF7B7
:1056000066FF700416D5690414D523680221D3F807
:105610000035204613F0040F654B1EBFD3F88020E1
:1056200022F48042C3F880204FF48042C3F8002166
:10563000FFF74DFFB20416D5AB0414D52368012142
:10564000D3F80035204613F0040F594B1EBFD3F892
:10565000802022F40052C3F880204FF40052C3F897
:105660000021FFF734FFF00416D5E90414D52368B0
:105670000021D3F80035204613F0040F4C4B1EBF19
:10568000D3F8802022F48052C3F880204FF4805257
:10569000C3F80021FFF71BFF320516D52B0514D5E3
:1056A00023680321D3F80035204613F0040F404B44
:1056B0001EBFD3F8802022F40062C3F880204FF48C
:1056C0000062C3F80021FFF703FF700516D56905D6
:1056D00014D523680221D3F80035204613F0040FB7
:1056E000334B1EBFD3F8802022F48062C3F88020A1
:1056F0004FF48062C3F80021FFF7EAFEB20516D529
:10570000AB0514D523680121D3F80035204613F0EA
:10571000040F274B1EBFD3F8802022F40072C3F879
:1057200080204FF40072C3F80021FFF7D1FEF0058E
:1057300016D5E90514D523680021D3F80035204695
:1057400013F0040F1A4B1EBFD3F8802022F480728E
:10575000C3F880204FF48072C3F80021FFF7B8FE31
:10576000320615D52B0613D523680321D3F800354F
:10577000204613F0040F0E4B1EBFD3F8802022F0FA
:105780008002C3F880208022C3F80021FFF7A1FE29
:10579000700619D5690617D523680221D3F800359C
:1057A000204613F0040F024B18BFD3F8802001E00D
:1057B000006000581CBF22F04002C3F88020402245
:1057C000C3F80021FFF785FEB20615D5AB0613D549
:1057D00023680121D3F80035204613F0040FB94B9C
:1057E0001EBFD3F8802022F02002C3F880202022A0
:1057F000C3F80021FFF76DFEF00615D5E90613D5B5
:1058000023680021D3F80035204613F0040FAD4B78
:105810001EBFD3F8802022F01002C3F8802010228F
:10582000C3F80021FFF755FE720013D56B0011D5A8
:10583000A44B2046D3F8802022F08042C3F8802079
:105840004FF08042C3F80021A36843F48073A36043
:10585000FFF70AFDB00013D5A90011D5994B2046DA
:10586000D3F8802022F00052C3F880204FF000527D
:10587000C3F80021A36843F40073A360FFF7F4FCAE
:10588000F20013D5EB0011D58E4B2046D3F88020C3
:1058900022F08052C3F880204FF08052C3F80021DC
:1058A000A36843F48063A360FFF7DEFC300113D5E7
:1058B000290111D5834B2046D3F8802022F00062C5
:1058C000C3F880204FF00062C3F80021A36843F4BE
:1058D0000063A360FFF7C8FC720113D56B0111D5FB
:1058E000784B2046D3F8802022F08062C3F88020D5
:1058F0004FF08062C3F80021A36843F48053A36093
:10590000FFF7B2FCB00113D5A90111D56D4B2046AC
:10591000D3F8802022F00072C3F880204FF000728C
:10592000C3F80021A36843F40053A360FFF79CFC75
:10593000F20113D5EB0111D5624B2046D3F880203C
:1059400022F08072C3F880204FF08072C3F80021EB
:10595000A36843F48043A360FFF786FC18F0010FAF
:1059600014D0F80712D50121564B2046D3F88020D9
:1059700022F00102C3F88020C3F80411A36843F4A5
:105980000023A36004232371FFF79EFD18F0020F8C
:1059900015D0B90713D54B4B0121D3F880202046F1
:1059A00022F00202C3F880200222C3F80421A36877
:1059B00043F48023A36004232371FFF785FD18F0CF
:1059C000040F13D07A0711D53E4B0121D3F8802064
:1059D000204622F00402C3F880200422C3F80421E8
:1059E000A36843F40033A360FFF76EFD18F0080FBF
:1059F00013D03B0711D5334B0121D3F8802020462B
:105A000022F00802C3F880200822C3F80421A3680A
:105A100043F48033A360FFF757FD18F0100F13D045
:105A2000F80611D5274B0121D3F88020204622F01B
:105A30001002C3F880201022C3F80421A36843F4A5
:105A40000043A360FFF740FD18F4807F16D0F905EE
:105A500014D51C4B0221D3F88020204622F48072FA
:105A6000C3F880204FF48072C3F80421A36843F484
:105A70000023A36004232371FFF726FD18F4007FA1
:105A800016D0BA0514D50F4B0221D3F8802020463A
:105A900022F40072C3F880204FF40072C3F804218E
:105AA000A36843F48023A36004232371FFF70CFD54
:105AB00018F4806F17D07B0515D5024B0221D3F85F
:105AC000802001E000600058204622F48062C3F884
:105AD00080204FF48062C3F80421A36843F40033AC
:105AE000A360FFF7F1FC18F4006F14D0380512D54D
:105AF0001F4B0221D3F88020204622F40062C3F815
:105B000080204FF40062C3F80421A36843F480337B
:105B1000A360FFF7D9FC18F4805F14D0F90412D504
:105B2000134B0221D3F88020204622F48052C3F880
:105B300080204FF48052C3F80421A36843F400434B
:105B4000A360FFF7C1FCF2030FD5EB030DD5084BA3
:105B50002046D3F8802022F48032C3F880204FF40E
:105B60008032C3F80021FFF7B1FCBDE8F08100BF2F
:105B70000060005810B500285BD0002A59D0037986
:105B8000022B56D109BB01682B4BD1F8040103400D
:105B9000B3F5804F4DD0D2E90043D1F8040543EA74
:105BA000044300F0F0200343C1F80435D2E9033484
:105BB00092682343D1F8080543EA02431F4A024092
:105BC0001343C1F80835002010BD012917D1D2E9CF
:105BD0000043016843EA0443D1F8040900F0F020CF
:105BE0000343C1F80439D1F80809D2E9024300F0AF
:105BF000F02243EA04431343C1F80839E3E70229DA
:105C000017D1D2E90043016843EA0443D1F8040DF7
:105C100000F0F0200343C1F8043DD1F8080DD2E9AB
:105C2000024300F0F02243EA04431343C1F8083D65
:105C3000C9E70120C8E700BF0040FF0000F000B046
:105C400068B30379022B2AD179B90368154AD3F8CE
:105C500004110A40B2F5804F21D0D3F8082542F054
:105C60000042C3F808250020704701290DD10368C0
:105C70000846D3F82028B2F5004F11D0D3F80829F0
:105C800042F00042C3F80829EDE7022907D1026873
:105C9000D2F8083D43F00043C2F8083DE3E7012095
:105CA000704700BF0040FF00E8B141B90268D2F878
:105CB000083523F00043C2F8083500207047012959
:105CC00007D10268D2F8083923F00043C2F8083936
:105CD000F3E7022907D10268D2F8083D23F0004318
:105CE000C2F8083DE9E70120704790B18AB1037915
:105CF000022B0ED101290CD1D2E9003200681343E6
:105D0000D0F8301821F01E021343C0F830380020BC
:105D100070470120704750B1012908D10268002066
:105D2000D2F8303843F00103C2F830387047012010
:105D30007047F8B10379022B1CD101290CD1D2E9AB
:105D4000003200681343D0F80C1921F01E021343EF
:105D5000C0F80C390020704702290BD1D2E900327B
:105D600000681343D0F80C1D21F01E021343C0F845
:105D70000C3DEFE701207047A0B1012908D102686E
:105D8000D2F80C3943F00103C2F80C3900207047F7
:105D9000022907D10268D2F80C3D43F00103C2F892
:105DA0000C3DF3E701207047A0B1012908D102683A
:105DB000D2F80C3923F00103C2F80C3900207047E7
:105DC000022907D10268D2F80C3D23F00103C2F882
:105DD0000C3DF3E70120704710B5002845D0002A9C
:105DE00043D00379022B40D101291ED1D2E90441CD
:105DF000036841EA0441D3F8100900F0FC20014394
:105E0000C3F81019D2E9020141EA0041C3F814199C
:105E1000D3F81819D2E9000201F0F02142EA004259
:105E20000A43C3F81829002010BD02291DD1D2E968
:105E30000441036841EA0441D3F8100D00F0FC204E
:105E40000143C3F8101DD2E9020141EA0041C3F841
:105E5000141DD3F8181DD2E9000201F0F02142EA26
:105E600000420A43C3F8182DDDE70120DCE7A0B1AA
:105E7000012908D10268D2F8103943F00043C2F872
:105E8000103900207047022907D10268D2F8103D6E
:105E900043F00043C2F8103DF3E701207047A0B182
:105EA000012908D10268D2F8703943F00103C2F821
:105EB000703900207047022907D10268D2F8703D7E
:105EC00043F00103C2F8703DF3E701207047A0B131
:105ED000012908D10268D2F8703923F00103C2F811
:105EE000703900207047022907D10268D2F8703D4E
:105EF00023F00103C2F8703DF3E701207047012948
:105F000005D10368D3F8700900F001007047022939
:105F100003D10368D3F8700DF6E700207047000046
:105F200010B5C8B1C2B1012916D1D2E903431B078C
:105F300043EA04439468016823431468526843EABF
:105F40000453D1F8700843EA0263044A0240002077
:105F50001343C1F8703810BD0120FCE7F9FF8888B1
:105F600050B1012908D102680020D2F8703843F0FE
:105F70000103C2F8703870470120704750B1012901
:105F800008D102680020D2F8703823F00103C2F86B
:105F9000703870470120704778B101290DD1006831
:105FA00043EA0233D0F8201821F4FF4222F07F02A6
:105FB0001343C0F82038002070470120704750B1CB
:105FC000012908D102680020D2F8203843F40043A8
:105FD000C2F8203870470120704750B1012908D11C
:105FE00002680020D2F8203823F40043C2F8203899
:105FF00070470120704760B101290AD10168002073
:10600000D1F8243823F00E0343EA4202C1F82428D1
:1060100070470120704750B1012908D10268002063
:10602000D2F8243843F00103C2F824387047012025
:10603000704750B1012908D102680020D2F82438F5
:1060400023F00103C2F82438704701207047036829
:10605000D3F82408C0F342007047012903BF036846
:10606000D3F8240800F001000020704758B152B165
:106070000379022B07D103680020D3F82838C3F333
:106080000B031360704701207047000070B50028B3
:1060900000F0A880002A00F0A580012940F0A2802D
:1060A00003681478D3F88008517820F0060041EA9C
:1060B00084010143C3F88018B2F902108CB2C1F315
